:1000EC000810007C8282827C000008087FBFDFEF52
:0400FC00F7FBFDFE13
:040101007F017E00FC
:0B010500EF1FAC0670011E4C70F622CC
:02008F00AD07BB
:10009100E4FBEBC3940874809480501CEDC41313EB
:1000A10013540124FF92B4ED25E0FDC2B612010103
:0F00B100D2B61201010B80DAC2B5120101D2B52D
:0100C000221D
:1000C100E4FAEAC394087480948050F474082AF81E
:1000D100E6F58074102AF8E6FF12008F7F647E0037
:0B00E100120105E4FF12008F0A80D717
:03000000020003F8
:0C000300787FE4F6D8FD75811702004AF2
:10000F000200C1E493A3F8E493A34003F68001F246
:10001F0008DFF48029E493A3F85407240CC8C333F2
:10002F00C4540F4420C8834004F456800146F6DFC1
:10003F00E4800B01020408102040809000ECE47E65
:10004F00019360BCA3FF543F30E509541FFEE493B6
:10005F00A360010ECF54C025E060A840B8E493A37D
:10006F00FAE493A3F8E493A3C8C582C8CAC583CAA8
:10007F00F0A3C8C582C8CAC583CADFE9DEE780BE60
:0101000000FE
:00000001FF
