:10014900C0F9A4B0999282F88090FF8040201008ED
:030159000402019C
:0A015C000808000A0A0A0A0A0A0A43
:10012F00EF1FAA0670011E4A600FE4FDEDC394781D
:09013F007480948050EA0D80F3F5
:010148002294
:10010300E4FCECC3940874809480501F7580FF74E2
:10011300082CF8E690014993F580EC90015493F58F
:0B012300A07F027E0012012F0C80D78D
:01012E0022AE
:10008F00E4F5107580FF7590FFF5A01201037590D0
:10009F00FFAF90EF2405603624FE601C14704A05F4
:1000AF0010D3E51094087480948040037510087481
:1000BF00072510F8A6108031D3E5109400748094B2
:1000CF00804026151074082510F8760A801BE4F579
:1000DF00087F01EFC3940874809480500974082F2F
:1000EF00F8760A0F80EDE4F510AF90EFF4609C12F4
:0400FF00010380F584
:03000000020003F8
:0C000300787FE4F6D8FD75811002004AF9
:10000F0002008FE493A3F8E493A34003F68001F278
:10001F0008DFF48029E493A3F85407240CC8C333F2
:10002F00C4540F4420C8834004F456800146F6DFC1
:10003F00E4800B010204081020408090015CE47EF4
:10004F00019360BCA3FF543F30E509541FFEE493B6
:10005F00A360010ECF54C025E060A840B8E493A37D
:10006F00FAE493A3F8E493A3C8C582C8CAC583CAA8
:10007F00F0A3C8C582C8CAC583CADFE9DEE780BE60
:010166000098
:00000001FF
